{"abi":[{"type":"constructor","inputs":[{"name":"msftFeed","type":"address","internalType":"address"},{"name":"ethUsdFeed","type":"address","internalType":"address"}],"stateMutability":"nonpayable"},{"type":"function","name":"ADDITIONAL_FEED_PRECISION","inputs":[],"outputs":[{"name":"","type":"uint256","internalType":"uint256"}],"stateMutability":"view"},{"type":"function","name":"DECIMALS","inputs":[],"outputs":[{"name":"","type":"uint256","internalType":"uint256"}],"stateMutability":"view"},{"type":"function","name":"PRECISION","inputs":[],"outputs":[{"name":"","type":"uint256","internalType":"uint256"}],"stateMutability":"view"},{"type":"function","name":"allowance","inputs":[{"name":"owner","type":"address","internalType":"address"},{"name":"spender","type":"address","internalType":"address"}],"outputs":[{"name":"","type":"uint256","internalType":"uint256"}],"stateMutability":"view"},{"type":"function","name":"approve","inputs":[{"name":"spender","type":"address","internalType":"address"},{"name":"value","type":"uint256","internalType":"uint256"}],"outputs":[{"name":"","type":"bool","internalType":"bool"}],"stateMutability":"nonpayable"},{"type":"function","name":"balanceOf","inputs":[{"name":"account","type":"address","internalType":"address"}],"outputs":[{"name":"","type":"uint256","internalType":"uint256"}],"stateMutability":"view"},{"type":"function","name":"decimals","inputs":[],"outputs":[{"name":"","type":"uint8","internalType":"uint8"}],"stateMutability":"view"},{"type":"function","name":"depositAndmint","inputs":[{"name":"amountToMint","type":"uint256","internalType":"uint256"}],"outputs":[],"stateMutability":"payable"},{"type":"function","name":"getAccountInformationValue","inputs":[{"name":"user","type":"address","internalType":"address"}],"outputs":[{"name":"totalmsftMintedValueUsd","type":"uint256","internalType":"uint256"},{"name":"totalCollateralValueUsd","type":"uint256","internalType":"uint256"}],"stateMutability":"view"},{"type":"function","name":"getEthAmountFromUsd","inputs":[{"name":"usdAmountInWei","type":"uint256","internalType":"uint256"}],"outputs":[{"name":"","type":"uint256","internalType":"uint256"}],"stateMutability":"view"},{"type":"function","name":"getHealthFactor","inputs":[{"name":"user","type":"address","internalType":"address"}],"outputs":[{"name":"","type":"uint256","internalType":"uint256"}],"stateMutability":"view"},{"type":"function","name":"getUsdAmountFromEth","inputs":[{"name":"ethAmountInWei","type":"uint256","internalType":"uint256"}],"outputs":[{"name":"","type":"uint256","internalType":"uint256"}],"stateMutability":"view"},{"type":"function","name":"getUsdAmountFrommsft","inputs":[{"name":"amountmsftInWei","type":"uint256","internalType":"uint256"}],"outputs":[{"name":"","type":"uint256","internalType":"uint256"}],"stateMutability":"view"},{"type":"function","name":"name","inputs":[],"outputs":[{"name":"","type":"string","internalType":"string"}],"stateMutability":"view"},{"type":"function","name":"redeemAndBurn","inputs":[{"name":"amountToRedeem","type":"uint256","internalType":"uint256"}],"outputs":[],"stateMutability":"nonpayable"},{"type":"function","name":"s_ethCollateralPerUser","inputs":[{"name":"user","type":"address","internalType":"address"}],"outputs":[{"name":"ethCollateral","type":"uint256","internalType":"uint256"}],"stateMutability":"view"},{"type":"function","name":"s_msftMintedPerUser","inputs":[{"name":"user","type":"address","internalType":"address"}],"outputs":[{"name":"msftMinted","type":"uint256","internalType":"uint256"}],"stateMutability":"view"},{"type":"function","name":"symbol","inputs":[],"outputs":[{"name":"","type":"string","internalType":"string"}],"stateMutability":"view"},{"type":"function","name":"totalSupply","inputs":[],"outputs":[{"name":"","type":"uint256","internalType":"uint256"}],"stateMutability":"view"},{"type":"function","name":"transfer","inputs":[{"name":"to","type":"address","internalType":"address"},{"name":"value","type":"uint256","internalType":"uint256"}],"outputs":[{"name":"","type":"bool","internalType":"bool"}],"stateMutability":"nonpayable"},{"type":"function","name":"transferFrom","inputs":[{"name":"from","type":"address","internalType":"address"},{"name":"to","type":"address","internalType":"address"},{"name":"value","type":"uint256","internalType":"uint256"}],"outputs":[{"name":"","type":"bool","internalType":"bool"}],"stateMutability":"nonpayable"},{"type":"event","name":"Approval","inputs":[{"name":"owner","type":"address","indexed":true,"internalType":"address"},{"name":"spender","type":"address","indexed":true,"internalType":"address"},{"name":"value","type":"uint256","indexed":false,"internalType":"uint256"}],"anonymous":false},{"type":"event","name":"Transfer","inputs":[{"name":"from","type":"address","indexed":true,"internalType":"address"},{"name":"to","type":"address","indexed":true,"internalType":"address"},{"name":"value","type":"uint256","indexed":false,"internalType":"uint256"}],"anonymous":false},{"type":"error","name":"ERC20InsufficientAllowance","inputs":[{"name":"spender","type":"address","internalType":"address"},{"name":"allowance","type":"uint256","internalType":"uint256"},{"name":"needed","type":"uint256","internalType":"uint256"}]},{"type":"error","name":"ERC20InsufficientBalance","inputs":[{"name":"sender","type":"address","internalType":"address"},{"name":"balance","type":"uint256","internalType":"uint256"},{"name":"needed","type":"uint256","internalType":"uint256"}]},{"type":"error","name":"ERC20InvalidApprover","inputs":[{"name":"approver","type":"address","internalType":"address"}]},{"type":"error","name":"ERC20InvalidReceiver","inputs":[{"name":"receiver","type":"address","internalType":"address"}]},{"type":"error","name":"ERC20InvalidSender","inputs":[{"name":"sender","type":"address","internalType":"address"}]},{"type":"error","name":"ERC20InvalidSpender","inputs":[{"name":"spender","type":"address","internalType":"address"}]},{"type":"error","name":"msft_feeds__InsufficientCollateral","inputs":[]}],"bytecode":{"object":"0x608060405234801561001057600080fd5b506040516111b43803806111b483398101604081905261002f916100e4565b6040518060400160405280600f81526020016e151bdad95b88135a58dc9bdcdbd99d608a1b815250604051806040016040528060048152602001631354d19560e21b815250816003908161008391906101b8565b50600461009082826101b8565b5050600580546001600160a01b039485166001600160a01b031991821617909155600680549390941692169190911790915550610277565b80516001600160a01b03811681146100df57600080fd5b919050565b600080604083850312156100f757600080fd5b610100836100c8565b915061010e602084016100c8565b90509250929050565b634e487b7160e01b600052604160045260246000fd5b600181811c9082168061014157607f821691505b60208210810361016157634e487b7160e01b600052602260045260246000fd5b50919050565b601f8211156101b3576000816000526020600020601f850160051c810160208610156101905750805b601f850160051c820191505b818110156101af5782815560010161019c565b5050505b505050565b81516001600160401b038111156101d1576101d1610117565b6101e5816101df845461012d565b84610167565b602080601f83116001811461021a57600084156102025750858301515b600019600386901b1c1916600185901b1785556101af565b600085815260208120601f198616915b828110156102495788860151825594840194600190910190840161022a565b50858210156102675787850151600019600388901b60f8161c191681555b5050505050600190811b01905550565b610f2e806102866000396000f3fe60806040526004361061012a5760003560e01c806370a08231116100ab578063aaf5eb681161006f578063aaf5eb6814610342578063afc8d0261461035e578063d0f933c01461037e578063dd62ed3e1461039e578063fe6bcd7c146103e4578063ffd7db561461040457600080fd5b806370a082311461028957806388545945146102bf57806395d89b41146102f4578063a0da12a514610309578063a9059cbb1461032257600080fd5b806326664933116100f257806326664933146101f65780632e0f262514610223578063313ce5671461023857806351995489146102545780635a7b0cb61461027457600080fd5b806306fdde031461012f578063095ea7b31461015a57806318160ddd1461018a5780631fa6b2cf146101a957806323b872dd146101d6575b600080fd5b34801561013b57600080fd5b50610144610424565b6040516101519190610ca0565b60405180910390f35b34801561016657600080fd5b5061017a610175366004610d0b565b6104b6565b6040519015158152602001610151565b34801561019657600080fd5b506002545b604051908152602001610151565b3480156101b557600080fd5b5061019b6101c4366004610d35565b60086020526000908152604090205481565b3480156101e257600080fd5b5061017a6101f1366004610d57565b6104d0565b34801561020257600080fd5b5061019b610211366004610d35565b60076020526000908152604090205481565b34801561022f57600080fd5b5061019b600881565b34801561024457600080fd5b5060405160128152602001610151565b34801561026057600080fd5b5061019b61026f366004610d93565b6104f4565b610287610282366004610d93565b6105b8565b005b34801561029557600080fd5b5061019b6102a4366004610d35565b6001600160a01b031660009081526020819052604090205490565b3480156102cb57600080fd5b506102df6102da366004610d35565b610645565b60408051928352602083019190915201610151565b34801561030057600080fd5b50610144610698565b34801561031557600080fd5b5061019b6402540be40081565b34801561032e57600080fd5b5061017a61033d366004610d0b565b6106a7565b34801561034e57600080fd5b5061019b670de0b6b3a764000081565b34801561036a57600080fd5b5061019b610379366004610d93565b6106b5565b34801561038a57600080fd5b50610287610399366004610d93565b610700565b3480156103aa57600080fd5b5061019b6103b9366004610dac565b6001600160a01b03918216600090815260016020908152604080832093909416825291909152205490565b3480156103f057600080fd5b5061019b6103ff366004610d35565b610826565b34801561041057600080fd5b5061019b61041f366004610d93565b610842565b60606003805461043390610ddf565b80601f016020809104026020016040519081016040528092919081815260200182805461045f90610ddf565b80156104ac5780601f10610481576101008083540402835291602001916104ac565b820191906000526020600020905b81548152906001019060200180831161048f57829003601f168201915b5050505050905090565b6000336104c4818585610905565b60019150505b92915050565b6000336104de858285610917565b6104e9858585610995565b506001949350505050565b6006546040516315d0e4b560e11b81526001600160a01b0390911660048201819052600091829073__$b2833b223d3db3ff1fac953ee732fac2e9$__90632ba1c96a906024015b60a060405180830381865af4158015610558573d6000803e3d6000fd5b505050506040513d601f19601f8201168201806040525081019061057c9190610e33565b505050915050670de0b6b3a76400006402540be4008261059c9190610e99565b6105a69086610e99565b6105b09190610eb0565b949350505050565b33600090815260086020526040812080543492906105d7908490610ed2565b909155505033600090815260076020526040812080548392906105fb908490610ed2565b909155506000905061060c33610826565b9050670de0b6b3a764000081101561063757604051634550724b60e11b815260040160405180910390fd5b61064133836109f4565b5050565b600080600080610677856001600160a01b03166000908152600760209081526040808320546008909252909120549091565b91509150610684826106b5565b935061068f816104f4565b92505050915091565b60606004805461043390610ddf565b6000336104c4818585610995565b6005546040516315d0e4b560e11b81526001600160a01b0390911660048201819052600091829073__$b2833b223d3db3ff1fac953ee732fac2e9$__90632ba1c96a9060240161053b565b600061070b826106b5565b9050600061071882610842565b3360009081526007602052604081208054929350859290919061073c908490610ee5565b909155506000905061074d33610826565b9050670de0b6b3a764000081101561077857604051634550724b60e11b815260040160405180910390fd5b6107823385610a2a565b604051600090339084908381818185875af1925050503d80600081146107c4576040519150601f19603f3d011682016040523d82523d6000602084013e6107c9565b606091505b505090508061081f5760405162461bcd60e51b815260206004820152601b60248201527f6d7366745f66656564733a207472616e73666572206661696c6564000000000060448201526064015b60405180910390fd5b5050505050565b600080600061083484610645565b915091506105b08282610a60565b6006546040516315d0e4b560e11b81526001600160a01b0390911660048201819052600091829073__$b2833b223d3db3ff1fac953ee732fac2e9$__90632ba1c96a9060240160a060405180830381865af41580156108a5573d6000803e3d6000fd5b505050506040513d601f19601f820116820180604052508101906108c99190610e33565b505050915050670de0b6b3a76400006402540be400826108e99190610e99565b6108f39190610e99565b6105a6670de0b6b3a764000086610e99565b6109128383836001610aa1565b505050565b6001600160a01b03838116600090815260016020908152604080832093861683529290522054600019811461098f578181101561098057604051637dc7a0d960e11b81526001600160a01b03841660048201526024810182905260448101839052606401610816565b61098f84848484036000610aa1565b50505050565b6001600160a01b0383166109bf57604051634b637e8f60e11b815260006004820152602401610816565b6001600160a01b0382166109e95760405163ec442f0560e01b815260006004820152602401610816565b610912838383610b76565b6001600160a01b038216610a1e5760405163ec442f0560e01b815260006004820152602401610816565b61064160008383610b76565b6001600160a01b038216610a5457604051634b637e8f60e11b815260006004820152602401610816565b61064182600083610b76565b600082600003610a7357506000196104ca565b60006064610a82603285610e99565b610a8c9190610eb0565b9050836105a6670de0b6b3a764000083610e99565b6001600160a01b038416610acb5760405163e602df0560e01b815260006004820152602401610816565b6001600160a01b038316610af557604051634a1406b160e11b815260006004820152602401610816565b6001600160a01b038085166000908152600160209081526040808320938716835292905220829055801561098f57826001600160a01b0316846001600160a01b03167f8c5be1e5ebec7d5bd14f71427d1e84f3dd0314c0f7b2291e5b200ac8c7c3b92584604051610b6891815260200190565b60405180910390a350505050565b6001600160a01b038316610ba1578060026000828254610b969190610ed2565b90915550610c139050565b6001600160a01b03831660009081526020819052604090205481811015610bf45760405163391434e360e21b81526001600160a01b03851660048201526024810182905260448101839052606401610816565b6001600160a01b03841660009081526020819052604090209082900390555b6001600160a01b038216610c2f57600280548290039055610c4e565b6001600160a01b03821660009081526020819052604090208054820190555b816001600160a01b0316836001600160a01b03167fddf252ad1be2c89b69c2b068fc378daa952ba7f163c4a11628f55a4df523b3ef83604051610c9391815260200190565b60405180910390a3505050565b60006020808352835180602085015260005b81811015610cce57858101830151858201604001528201610cb2565b506000604082860101526040601f19601f8301168501019250505092915050565b80356001600160a01b0381168114610d0657600080fd5b919050565b60008060408385031215610d1e57600080fd5b610d2783610cef565b946020939093013593505050565b600060208284031215610d4757600080fd5b610d5082610cef565b9392505050565b600080600060608486031215610d6c57600080fd5b610d7584610cef565b9250610d8360208501610cef565b9150604084013590509250925092565b600060208284031215610da557600080fd5b5035919050565b60008060408385031215610dbf57600080fd5b610dc883610cef565b9150610dd660208401610cef565b90509250929050565b600181811c90821680610df357607f821691505b602082108103610e1357634e487b7160e01b600052602260045260246000fd5b50919050565b805169ffffffffffffffffffff81168114610d0657600080fd5b600080600080600060a08688031215610e4b57600080fd5b610e5486610e19565b9450602086015193506040860151925060608601519150610e7760808701610e19565b90509295509295909350565b634e487b7160e01b600052601160045260246000fd5b80820281158282048414176104ca576104ca610e83565b600082610ecd57634e487b7160e01b600052601260045260246000fd5b500490565b808201808211156104ca576104ca610e83565b818103818111156104ca576104ca610e8356fea2646970667358221220926a46d86253997064cda6509b0b60a86d2007633eff4a40d8e3647b0fd0a24d64736f6c63430008190033","linkReferences":{"src/library/OracleLib.sol":{"OracleLib":[{"start":1955,"length":20},{"start":2404,"length":20},{"start":2801,"length":20}]}}},"methodIdentifiers":{"ADDITIONAL_FEED_PRECISION()":"a0da12a5","DECIMALS()":"2e0f2625","PRECISION()":"aaf5eb68","allowance(address,address)":"dd62ed3e","approve(address,uint256)":"095ea7b3","balanceOf(address)":"70a08231","decimals()":"313ce567","depositAndmint(uint256)":"5a7b0cb6","getAccountInformationValue(address)":"88545945","getEthAmountFromUsd(uint256)":"ffd7db56","getHealthFactor(address)":"fe6bcd7c","getUsdAmountFromEth(uint256)":"51995489","getUsdAmountFrommsft(uint256)":"afc8d026","name()":"06fdde03","redeemAndBurn(uint256)":"d0f933c0","s_ethCollateralPerUser(address)":"1fa6b2cf","s_msftMintedPerUser(address)":"26664933","symbol()":"95d89b41","totalSupply()":"18160ddd","transfer(address,uint256)":"a9059cbb","transferFrom(address,address,uint256)":"23b872dd"},"id":31}